:100000000C942A000C9447000C9447000C94470071
:100010000C9447000C9447000C9447000C94470044
:100020000C9447000C9447000C9447000C94470034
:100030000C9447000C9447000C9447000C94470024
:100040000C9447000C9447000C9447000C94470014
:100050000C94470011241FBECFE5D8E0DEBFCDBF12
:1000600010E0A0E6B0E0E6EFF1E002C005900D92EE
:10007000A43AB107D9F720E0A4EAB0E001C01D928C
:10008000A43AB207E1F70E94A5000C94F9000C9481
:1000900000008BBBC198C29AC09889EF90E001978D
:1000A000F1F700C00000C09A87EA91E60197F1F7E6
:1000B00000C0000008958BBBC198C298C09889EF1A
:1000C00090E00197F1F700C00000C09A87EA91E63E
:1000D0000197F1F700C0000008958FEF8ABB1BBAAB
:1000E00087E087BB81E088BB88E30E945B008CE0EF
:1000F0000E945B00089581E00E945B0008956111F9
:1001000004C080580E945B00089580540E945B00E8
:100110000895CF93DF93EC018881882331F02196F5
:100120000E94490089918111FBCFDF91CF91089501
:10013000CF93DF93EC01862F642F0E947F00CE01C6
:100140000E948900DF91CF9108950E946D0080E6A2
:1001500090E00E9489002FE78AE196E021508040DC
:100160009040E1F700C000000E947B0086E690E02E
:100170000E9489002FE78AE196E02150804090405C
:10018000E1F700C000000E947B0041E060E081E7F1
:1001900090E00E9498002FE78AE196E0215080408D
:1001A0009040E1F700C000000E947B0040E060E06A
:1001B0008FE790E00E9498002FE78AE196E02150B7
:1001C00080409040E1F700C000000E947B0041E0C9
:1001D00060E086E990E00E9498002FE78AE196E0CF
:1001E000215080409040E1F700C000000E947B0059
:0601F000EECFF894FFCFF2
:1001F6006B6172696D00206162647261686D616E27
:10020600002049534C414D204861676761670045AE
:100216006D6265646465642053797374656D7320DB
:10022600547261636B0057656C636F6D6520426F36
:04023600617264008D
:00000001FF
