:100000000C942A000C9434000C9434000C943400AA
:100010000C9434000C9434000C9434000C94340090
:100020000C9434000C9434000C9434000C94340080
:100030000C9434000C9434000C9434000C94340070
:100040000C9434000C9434000C9434000C94340060
:100050000C94340011241FBECFE5D8E0DEBFCDBF25
:100060000E9436000C944D000C9400008FEF8ABB68
:100070001BBA81BB12BA17BA88BB86B380958BBBFB
:1000800086B3809582BB2FE986E891E021508040BD
:0E0090009040E1F700C00000F0CFF894FFCFE1
:00000001FF
