:100000000C942A000C9434000C9434000C943400AA
:100010000C9434000C9434000C9434000C94340090
:100020000C9434000C9434000C9434000C94340080
:100030000C9434000C9434000C9434000C94340070
:100040000C9434000C9434000C9434000C94340060
:100050000C94340011241FBECFE5D8E0DEBFCDBF25
:100060000E9436000C9454000C94000081E08ABB7E
:100070008EEF8BBB81E091E020E001C0892FC99910
:1000800010C0882371F08BB389278BBB3FE946E80A
:1000900081E0315040408040E1F700C00000822FF5
:0C00A000EECFC999EBCFEBCFF894FFCF67
:00000001FF
