:100000000C9474000C9491000C9491000C94910049
:100010000C9491000C9491000C9491000C9491001C
:100020000C9491000C9491000C9491000C9491000C
:100030000C9491000C9491000C9491000C949100FC
:100040000C9491000C9491000C9491000C949100EC
:100050000C949100640267026A026D0270027302DE
:10006000760279027C0207634236B79BD8A71A3919
:10007000685618AEBAAB558C1D3CB7CC5763BD6DF6
:10008000EDFD753EF6177231BF000000803F08009D
:100090000000BE922449123EABAAAA2ABECDCCCC07
:1000A0004C3E00000080BEABAAAAAA3E00000000A1
:1000B000BF000000803F0000000000084178D3BB73
:1000C0004387D1133D190E3CC3BD4282AD2B3E6820
:1000D000EC8276BED98FE1A93E4C80EFFFBE01C411
:1000E000FF7F3F000000000011241FBECFE5D8E0D5
:1000F000DEBFCDBF10E0A0E6B0E0E6EBFBE002C063
:1001000005900D92AC3BB107D9F720E0ACEBB0E025
:1001100001C01D92AC3BB207E1F70E94F6010C94BE
:10012000D9050C94000080EF81BB8FEF82BB08954E
:1001300084E090E060E041E050E072B39A01082E64
:1001400002C0220F331F0A94E2F7E22FE0957E23CC
:1001500072BBE9EFF0E03197F1F700C0000070B337
:100160007F707F3029F080B38F708F30E1F708C047
:1001700032B3232B22BB6F5F01966430F1F635C09A
:100180006430B1F1613081F018F06230C9F024C000
:100190007D3031F07E3011F17B3021F080E023C0E2
:1001A00084E021C081E01FC07D3031F07E30C1F09D
:1001B0007B3021F080E017C085E015C082E013C0DD
:1001C0007D3031F07E3071F07B3021F080E00BC06B
:1001D00086E009C083E007C080E005C087E003C077
:1001E00088E001C089E090E0089580E090E0089503
:1001F00080E090E008958BBBC198C29AC09889EFC7
:1002000090E00197F1F700C00000C09A81EE94E001
:100210000197F1F700C0000008958BBBC198C29808
:10022000C09881EE94E00197F1F700C00000C09AF9
:1002300087EA91E60197F1F700C0000008958FEF7B
:100240008ABB1BBA87E087BB81E088BB88E30E943A
:100250000D018CE00E940D01089581E00E940D01C6
:100260000895611104C080580E940D0108958054C2
:100270000E940D010895CF93DF93EC0188818823BC
:1002800031F021960E94FB0089918111FBCFDF9113
:10029000CF910895CF93DF93EC01862F642F0E94B6
:1002A0003101CE010E943B01DF91CF9108958FE093
:1002B00084BB80EF85BB80E00E945A0208958F9234
:1002C0009F92AF92BF92CF92DF92EF92FF92CF9325
:1002D000DF93C82F882309F46CC0D0916200DD231E
:1002E000C4F16D2F772767FD7095872F972F0E9498
:1002F00017039B01AC0160E070E080E291E40E9492
:1003000006046B017C016091600070916100882798
:1003100077FD8095982F0E9417034B015C016C2F8D
:1003200070E080E090E00E941703A70196010E9410
:10033000A3039B01AC01C501B4010E9480020E948D
:10034000E4027093610060936000D150D09362002A
:1003500030C00E942D010E94570140E060E083E61A
:1003600090E00E944A0141E060E08BE690E00E944C
:100370004A012FE986E891E0215080409040E1F762
:1003800000C0000083E08093620081E090E09093E1
:100390006100809360000E942D0140E060E087E7EB
:1003A00090E00E944A0141E060E082E890E00E9413
:1003B0004A018091600090916100823D944051F427
:1003C00083E08093620081E090E0909361008093ED
:1003D000600001C080E0DF91CF91FF90EF90DF904F
:1003E000CF90BF90AF909F908F9008950E941F0173
:1003F0000E9493000E94570140E060E087E790E090
:100400000E944A0141E060E082E890E00E944A01D7
:10041000C0E00E949800D82F0E945A028D2F0E949F
:100420005F018130B1F70E942D018DE890E00E94BC
:100430003B0141E060E089E990E00E944A019C991B
:1004400026C00E942D018AEA90E00E943B01C0E094
:100450008C2F0E945A022FE986E891E021508040BB
:100460009040E1F700C00000CF5FCA3089F70E94DA
:100470002D0185EB90E00E943B012FE38DE093E09E
:10048000215080409040E1F700C0000002C0CA3017
:10049000B0F20E942D010E94570140E060E087E722
:1004A00090E00E944A0141E060E082E890E00E9412
:1004B0004A01AFCF90E0FC013197E930F105F0F44B
:1004C000E65DFF4F0C94D30581EF85BB089582EF65
:1004D00085BB089583EF85BB089584EF85BB0895A0
:1004E00085EF85BB089586EF85BB089587EF85BBB3
:1004F000089588EF85BB089589EF85BB089550580E
:10050000BB27AA270ED0E5C0D6D030F0DBD020F034
:1005100031F49F3F11F41EF4CBC00EF4E095E7FBDD
:10052000C1C0E92FE7D080F3BA17620773078407C9
:10053000950718F071F49EF5FFC00EF4E0950B2EB0
:10054000BA2FA02D0B01B90190010C01CA01A00125
:100550001124FF27591B99F0593F50F4503E68F180
:100560001A16F040A22F232F342F4427585FF3CFC1
:10057000469537952795A795F0405395C9F77EF492
:100580001F16BA0B620B730B840BBAF09150A1F0DB
:10059000FF0FBB1F661F771F881FC2F70EC0BA0F61
:1005A000621F731F841F48F4879577956795B795E9
:1005B000F7959E3F08F0B3CF9395880F08F09927E1
:1005C000EE0F97958795089504D06894B111B5C042
:1005D000089598D088F09F5790F0B92F9927B75178
:1005E000A0F0D1F0660F771F881F991F1AF0BA95F7
:1005F000C9F712C0B13081F09FD0B1E008959CC01E
:10060000672F782F8827B85F39F0B93FCCF38695EC
:1006100077956795B395D9F73EF490958095709549
:1006200061957F4F8F4F9F4F0895E89409C097FBC6
:100630003EF490958095709561957F4F8F4F9F4FB9
:100640009923A9F0F92F96E9BB279395F6958795FD
:1006500077956795B795F111F8CFFAF4BB0F11F4C0
:1006600060FF1BC06F5F7F4F8F4F9F4F16C0882367
:1006700011F096E911C0772321F09EE8872F762F9D
:1006800005C0662371F096E8862F70E060E02AF0DE
:100690009A95660F771F881FDAF7880F96958795CA
:1006A00097F9089597F99F6780E870E060E00895F2
:1006B0009FEF80EC089500240A941616170618067A
:1006C0000906089500240A94121613061406050656
:1006D0000895092E0394000C11F4882352F0BB0FE7
:1006E00040F4BF2B11F460FF04C06F5F7F4F8F4F4A
:1006F0009F4F089557FD9058440F551F59F05F3F85
:1007000071F04795880F97FB991F61F09F3F79F033
:1007100087950895121613061406551FF2CF4695B5
:10072000F1DF08C0161617061806991FF1CF869537
:100730007105610508940895E894BB27662777271B
:10074000CB0197F908950BD0C4CFB5DF28F0BADFFD
:1007500018F0952309F0A6CFABCF1124EECFCADF56
:10076000A0F3959FD1F3950F50E0551F629FF001C4
:10077000729FBB27F00DB11D639FAA27F00DB11D1D
:10078000AA1F649F6627B00DA11D661F829F2227A6
:10079000B00DA11D621F739FB00DA11D621F839F2D
:1007A000A00D611D221F749F3327A00D611D231F03
:1007B000849F600D211D822F762F6A2F11249F5751
:1007C00050408AF0E1F088234AF0EE0FFF1FBB1F74
:1007D000661F771F881F91505040A9F79E3F510513
:1007E00070F060CFAACF5F3FECF3983EDCF38695C4
:1007F00077956795B795F795E7959F5FC1F7FE2BBE
:10080000880F911D9695879597F90895FA01EE0F37
:10081000FF1F30962105310599F16115710561F4CD
:100820008038BFE39B0749F168949038810561F0F7
:100830008038BFEF9B0741F0992342F5FF3FE10568
:100840003105210511F1E8940894E795D901AA230F
:1008500029F4AB2FBE2FF85FD0F310C0FF5F70F408
:10086000A695E0F7F73950F019F0FF3A38F49F7782
:100870009F930CD00F9007FC905808953EF018CF2E
:1008800060E070E080E89FE308954FE79F775F9313
:100890004F933F932F939ED02F913F914F915F9114
:1008A00052DF05C019F40EF0FDCE46CF01CF2ADF8E
:1008B000C8F39638C0F707F80F92E8942BE33AEAAA
:1008C00048EB5FE74EDF0F920F920F924DB75EB786
:1008D0000F92C0D0E6E6F0E016D04F915F91EF9115
:1008E000FF91E595EE1FFF1F49F0FE57E068442792
:1008F000EE0F441FFA95E1F74195550B32D00F905A
:1009000007FE26C00895DF93CF931F930F93FF92A6
:10091000EF92DF927B018C01689405C0DA2EEF0123
:100920001EDFFE01E894A5912591359145915591E1
:10093000AEF3EF01F6DDFE019701A801DA9479F735
:10094000DF90EF90FF900F911F91CF91DF9108956D
:100950009B01AC0160E070E080E89FE3AEC0A2CEF6
:1009600014C1D0DEE8F39923D9F3940F511DBBF3E2
:100970009150504094F059F0882332F0660F771F61
:10098000881F91505040C1F79E3F510544F7880F92
:10099000911D9695879597F908955F3FACF0983E25
:1009A0009CF0BB27869577956795B79508F4B1605D
:1009B0009395C1F7BB0F58F711F460FFE8CF6F5F55
:1009C0007F4F8F4F9F4FE3CFB8CE0EF0DEC070CE7B
:1009D000689468CE97DEC8F39923D1F3C6F3DF930A
:1009E000CF931F930F93FF92C92FDD2788232AF0FF
:1009F0002197660F771F881FDAF720E030E040E884
:100A00005FEB9FE3883920F0803E30F021968F77AE
:100A100077DDEEE8F0E003C073DDEBEBF0E073DFD1
:100A20008B01BE01EC01FB2E6F5771097595771F85
:100A3000880B990BFCDD28E132E741E35FE38FDEB1
:100A4000AF2D9801AE01FF900F911F91CF91DF91D3
:100A500068DD3FCEFA01DC01AA0FBB1F9B01AC0190
:100A6000BF5728F422273327442750781FC0B75197
:100A700088F4AB2F0024469537952795011CA39544
:100A8000D2F3002069F0220F331F441FB395DAF32D
:100A90000DD035CD61307105A0E88A07B94630F434
:100AA0009B01AC016627772788279078309621F044
:100AB000208331834283538308950CD00ACE02DE13
:100AC00040F0F9DD30F021F45F3F19F0EBCD51112A
:100AD00034CEEECD0FDE98F39923C9F35523B1F34D
:100AE000951B550BBB27AA2762177307840738F09D
:100AF0009F5F5F4F220F331F441FAA1FA9F333D0FC
:100B00000E2E3AF0E0E830D091505040E695001CAF
:100B1000CAF729D0FE2F27D0660F771F881FBB1F6B
:100B2000261737074807AB07B0E809F0BB0B802D45
:100B3000BF01FF2793585F4F2AF09E3F510568F091
:100B4000B1CDFBCD5F3FECF3983EDCF38695779516
:100B50006795B795F7959F5FC9F7880F911D969593
:100B6000879597F90895E1E0660F771F881FBB1FEF
:100B7000621773078407BA0720F0621B730B840B9C
:100B8000BA0BEE1F88F7E09508959F3F31F0915022
:100B900020F4879577956795B795880F911D969561
:100BA000879597F90895EE0FFF1F0590F491E02DBA
:060BB0000994F894FFCF48
:100BB600010003496E76616C696400706173737736
:100BC6006F726421212100656E74657220796F75DC
:100BD600720070617373776F72643A2000636F728C
:100BE60072656374205E5F5E005072657373205495
:100BF600686520537769746368004C6F6164696E39
:0C0C0600672E2E2E00446F6E652100004A
:00000001FF
