:100000000C942A000C943C000C943C000C943C0092
:100010000C943C000C943C000C943C000C943C0070
:100020000C943C000C943C000C943C000C943C0060
:100030000C943C000C943C000C943C000C943C0050
:100040000C943C000C943C000C943C000C943C0040
:100050000C943C0011241FBECFE5D8E0DEBFCDBF1D
:1000600020E0A0E6B0E001C01D92A136B207E1F7A2
:100070000E943E000C9469000C940000D09AD8981D
:1000800089B7816089BF89B78D7F89BF83B78F7B2F
:1000900083BF83B7877F83BF83B7846083BF83B702
:1000A0008D7F83BF83B7816083BF91E008B600FE78
:1000B000FDCF809160008F5F8093600098BF80913A
:1000C00060008E3199F78BB389278BBB109260004B
:0600D000EDCFF894FFCF14
:00000001FF
