:100000000C946B000C9496020C9488000C9488005D
:100010000C9488000C9488000C9488000C94880040
:100020000C9488000C9488000C9488000C94880030
:100030000C9488000C9488000C9488000C94880020
:100040000C9488000C9488000C9488000C94880010
:100050000C94880007634236B79BD8A71A396856B4
:1000600018AEBAAB558C1D3CB7CC5763BD6DEDFDDA
:10007000753EF6177231BF000000803F0800000097
:10008000BE922449123EABAAAA2ABECDCCCC4C3E8D
:1000900000000080BEABAAAAAA3E00000000BF007C
:1000A0000000803F0000000000084178D3BB438778
:1000B000D1133D190E3CC3BD4282AD2B3E68EC828C
:1000C00076BED98FE1A93E4C80EFFFBE01C4FF7F11
:1000D0003F000000000011241FBECFE5D8E0DEBFC6
:1000E000CDBF10E0A0E6B0E0ECE1FCE002C005907E
:1000F0000D92A03DB107D9F720E0A0EDB0E001C01E
:100100001D92A23DB207E1F70E9419020C940C0661
:100110000C94000080EF84BB8FEF85BB089584E0D2
:1001200090E060E041E050E075B39A01082E02C013
:10013000220F331F0A94E2F7E22FE0957E2375BB6E
:10014000E9EFF0E03197F1F700C0000073B37F7082
:100150007F3029F083B38F708F30E1F708C035B35B
:10016000232B25BB6F5F01966430F1F657C06430D6
:1001700009F457C06130C1F028F0623039F16330C2
:10018000B9F141C07B3061F018F4773059F004C008
:100190007D3021F07E30C9F184E63EC084E03CC071
:1001A00081E03AC080E038C07B3061F018F47730ED
:1001B00059F004C07D3021F07E3049F184E62CC036
:1001C00085E02AC082E028C080E026C07B3061F054
:1001D00018F4773059F004C07D3021F07E30C9F03A
:1001E00084E61AC086E018C083E016C080E014C020
:1001F0007B3089F018F4773071F003C07D50723095
:1002000050F084E609C084E607C087E005C088E0B6
:1002100003C089E001C080E090E0089584E690E0AA
:10022000089584E690E00895C298C198E9EFF0E05F
:100230003197F1F700C00000C09AE9EFF0E0319784
:10024000F1F700C000008BBB89EF90E00197F1F758
:1002500000C00000C098E9EFF0E03197F1F700C06E
:10026000000008958AB38FEF8ABB87B3876087BB8E
:1002700088E30E94140181E00E9414018CE00E9436
:1002800014010895CF93C82F9091D0009F5F909351
:10029000D000913119F480EC0E9414018091D000BB
:1002A000813229F41092D00080E80E941401C29A91
:1002B000C19889EF90E00197F1F700C00000C09A63
:1002C00089EF90E00197F1F700C00000CBBB89EF08
:1002D00090E00197F1F700C00000C09889EF90E02E
:1002E0000197F1F700C00000CF9108951F93CF93BD
:1002F000DF93EC018881882351F010E00E944201D5
:100300001F5FFE01E10FF11D80818111F7CFDF91A9
:10031000CF911F91089581E00E9414011092D000A6
:1003200008958F929F92AF92BF92CF92DF92EF92F9
:10033000FF92CF93DF93D82F843609F45DC0C0912C
:100340006200CC23C4F16C2F772767FD7095872F4F
:10035000972F0E9450039B01AC0160E070E080E2A7
:1003600091E40E943F046B017C01609160007091F8
:100370006100882777FD8095982F0E9450034B01DC
:100380005C016D2F70E080E090E00E945003A701B7
:1003900096010E94DC039B01AC01C501B4010E94DF
:1003A000B9020E941D037093610060936000C15008
:1003B000C093620021C00E948B0180E00E94A702CE
:1003C00083E690E00E9476012FE58AEE90E02150CE
:1003D00080409040E1F700C0000083E0809362001D
:1003E00081E090E090936100809360000E948B0117
:1003F00087E790E00E947601809160009091610013
:10040000823D944051F483E08093620081E090E06B
:10041000909361008093600001C080E0DF91CF91F4
:10042000FF90EF90DF90CF90BF90AF909F908F9014
:1004300008950E9432010E948A000E94B00287E75C
:1004400090E00E94760185B7826085BF8BB780649B
:100450008BBF7894D1E010E019C00E948B018BE82B
:1004600090E00E9476012FE986E891E021508040DB
:100470009040E1F700C00000829B08C01093D100BB
:100480000E948B0187E790E00E947601D093D10013
:10049000829BE3CF0E948F00C82F843611F00E9408
:1004A000A7028C2F0E949101813081F70E948B015D
:1004B00081EA90E00E9476018FE493EC0197F1F7D6
:1004C00000C000000E948B018DEA90E00E9476013E
:1004D0008099FECF0E948B018EEB90E00E94760106
:1004E000C12F8C2F0E94A7028FE493EC0197F1F7A4
:1004F00000C00000CF5FCA30A1F70E948B0189ECD9
:1005000090E00E9476019FE32DE083E0915020402F
:100510008040E1F700C000000E948B0187E790E077
:100520000E947601812F0E94A702B0CF1F920F92E6
:100530000FB60F9211248F93829903C081E08093AC
:10054000D1008F910F900FBE0F901F90189522B37E
:1005500030E1839FC00111242F70822B82BB08954C
:1005600080EF81BB8FE082BB80E00E94A7020895EC
:100570005058BB27AA270ED0E5C0D6D030F0DBD02C
:1005800020F031F49F3F11F41EF4CBC00EF4E0953F
:10059000E7FBC1C0E92FE7D080F3BA176207730702
:1005A0008407950718F071F49EF5FFC00EF4E095EE
:1005B0000B2EBA2FA02D0B01B90190010C01CA011D
:1005C000A0011124FF27591B99F0593F50F4503EC8
:1005D00068F11A16F040A22F232F342F4427585FBA
:1005E000F3CF469537952795A795F0405395C9F7D2
:1005F0007EF41F16BA0B620B730B840BBAF091508A
:10060000A1F0FF0FBB1F661F771F881FC2F70EC028
:10061000BA0F621F731F841F48F4879577956795FB
:10062000B795F7959E3F08F0B3CF9395880F08F0E4
:100630009927EE0F97958795089504D06894B11186
:10064000B5C0089598D088F09F5790F0B92F99279A
:10065000B751A0F0D1F0660F771F881F991F1AF0CD
:10066000BA95C9F712C0B13081F09FD0B1E00895BA
:100670009CC0672F782F8827B85F39F0B93FCCF33B
:10068000869577956795B395D9F73EF490958095C3
:10069000709561957F4F8F4F9F4F0895E89409C0E3
:1006A00097FB3EF490958095709561957F4F8F4FA5
:1006B0009F4F9923A9F0F92F96E9BB279395F695BB
:1006C000879577956795B795F111F8CFFAF4BB0F39
:1006D00011F460FF1BC06F5F7F4F8F4F9F4F16C09D
:1006E000882311F096E911C0772321F09EE8872F27
:1006F000762F05C0662371F096E8862F70E060E0E3
:100700002AF09A95660F771F881FDAF7880F96955B
:10071000879597F9089597F99F6780E870E060E002
:1007200008959FEF80EC089500240A94161617068A
:1007300018060906089500240A94121613061406D2
:1007400005060895092E0394000C11F4882352F035
:10075000BB0F40F4BF2B11F460FF04C06F5F7F4FED
:100760008F4F9F4F089557FD9058440F551F59F0D4
:100770005F3F71F04795880F97FB991F61F09F3F8E
:1007800079F087950895121613061406551FF2CFB7
:100790004695F1DF08C0161617061806991FF1CF07
:1007A00086957105610508940895E894BB2766272E
:1007B0007727CB0197F908950BD0C4CFB5DF28F088
:1007C000BADF18F0952309F0A6CFABCF1124EECFF6
:1007D000CADFA0F3959FD1F3950F50E0551F629F9C
:1007E000F001729FBB27F00DB11D639FAA27F00D8A
:1007F000B11DAA1F649F6627B00DA11D661F829FB1
:100800002227B00DA11D621F739FB00DA11D621F95
:10081000839FA00D611D221F749F3327A00D611DB2
:10082000231F849F600D211D822F762F6A2F112494
:100830009F5750408AF0E1F088234AF0EE0FFF1FE7
:10084000BB1F661F771F881F91505040A9F79E3F1E
:10085000510570F060CFAACF5F3FECF3983EDCF318
:10086000869577956795B795F795E7959F5FC1F75B
:10087000FE2B880F911D9695879597F90895FA019B
:10088000EE0FFF1F30962105310599F161157105B5
:1008900061F48038BFE39B0749F168949038810583
:1008A00061F08038BFEF9B0741F0992342F5FF3F8D
:1008B000E1053105210511F1E8940894E795D90186
:1008C000AA2329F4AB2FBE2FF85FD0F310C0FF5F2F
:1008D00070F4A695E0F7F73950F019F0FF3A38F4C4
:1008E0009F779F930CD00F9007FC905808953EF08F
:1008F00018CF60E070E080E89FE308954FE79F77AE
:100900005F934F933F932F939ED02F913F914F91A1
:100910005F9152DF05C019F40EF0FDCE46CF01CF36
:100920002ADFC8F39638C0F707F80F92E8942BE354
:100930003AEA48EB5FE74EDF0F920F920F924DB706
:100940005EB70F92C0D0E4E5F0E016D04F915F9112
:10095000EF91FF91E595EE1FFF1F49F0FE57E0680C
:100960004427EE0F441FFA95E1F74195550B32D01D
:100970000F9007FE26C00895DF93CF931F930F9328
:10098000FF92EF92DF927B018C01689405C0DA2E12
:10099000EF011EDFFE01E894A59125913591459167
:1009A0005591AEF3EF01F6DDFE019701A801DA944F
:1009B00079F7DF90EF90FF900F911F91CF91DF912A
:1009C00008959B01AC0160E070E080E89FE3AEC059
:1009D000A2CE14C1D0DEE8F39923D9F3940F511DB0
:1009E000BBF39150504094F059F0882332F0660FD9
:1009F000771F881F91505040C1F79E3F510544F723
:100A0000880F911D9695879597F908955F3FACF0F3
:100A1000983E9CF0BB27869577956795B79508F427
:100A2000B1609395C1F7BB0F58F711F460FFE8CFA1
:100A30006F5F7F4F8F4F9F4FE3CFB8CE0EF0DEC07A
:100A400070CE689468CE97DEC8F39923D1F3C6F3CD
:100A5000DF93CF931F930F93FF92C92FDD27882336
:100A60002AF02197660F771F881FDAF720E030E021
:100A700040E85FEB9FE3883920F0803E30F021961C
:100A80008F7777DDECE7F0E003C073DDE9EAF0E0B3
:100A900073DF8B01BE01EC01FB2E6F577109759559
:100AA000771F880B990BFCDD28E132E741E35FE318
:100AB0008FDEAF2D9801AE01FF900F911F91CF9166
:100AC000DF9168DD3FCEFA01DC01AA0FBB1F9B015D
:100AD000AC01BF5728F422273327442750781FC082
:100AE000B75188F4AB2F0024469537952795011C04
:100AF000A395D2F3002069F0220F331F441FB39552
:100B0000DAF30DD035CD61307105A0E88A07B9461A
:100B100030F49B01AC0166277727882790783096C0
:100B200021F0208331834283538308950CD00ACE71
:100B300002DE40F0F9DD30F021F45F3F19F0EBCD3B
:100B4000511134CEEECD0FDE98F39923C9F355231E
:100B5000B1F3951B550BBB27AA27621773078407B0
:100B600038F09F5F5F4F220F331F441FAA1FA9F366
:100B700033D00E2E3AF0E0E830D091505040E69558
:100B8000001CCAF729D0FE2F27D0660F771F881FB9
:100B9000BB1F261737074807AB07B0E809F0BB0BA8
:100BA000802DBF01FF2793585F4F2AF09E3F5105CC
:100BB00068F0B1CDFBCD5F3FECF3983EDCF386955A
:100BC00077956795B795F7959F5FC9F7880F911D42
:100BD0009695879597F90895E1E0660F771F881F2E
:100BE000BB1F621773078407BA0720F0621B730BE1
:100BF000840BBA0BEE1F88F7E09508959F3F31F004
:100C0000915020F4879577956795B795880F911D3A
:0C0C10009695879597F90895F894FFCF0A
:100C1C00010003496E76616C6964207061737377AF
:100C2C006F726421212100656E74657220796F7575
:100C3C00722070617373776F726400696E74657281
:100C4C007275707420697320636F6D696E672121F2
:100C5C0000636F7272656374205E5F5E0050726534
:100C6C0073732054686520537769746368004C6F04
:100C7C006164696E672E2E2E00446F6E6521000034
:00000001FF
