:100000000C942A000C943C000C943C000C943C0092
:100010000C943C000C943C000C943C000C943C0070
:100020000C943C000C943C000C943C000C943C0060
:100030000C943C000C946D000C945E000C943C00FD
:100040000C943C000C943C000C943C000C943C0040
:100050000C943C0011241FBECFE5D8E0DEBFCDBF1D
:1000600020E0A0E6B0E001C01D92A236B207E1F7A1
:100070000E943E000C947C000C94000078940E9436
:1000800053000E944B000E945B008823E1F390E044
:100090000E945100F8CF8FEF87BB18BA8FE388BB5F
:1000A000089588BB089583E389B910BC86E880BDB4
:1000B00088E18AB908958091610008951F920F9296
:1000C0000FB60F9211248F93809160008CB98F919D
:1000D0000F900FBE0F901F9018951F920F920FB6A2
:1000E0000F9211248F938CB1809361008F910F90A8
:0C00F0000FBE0F901F901895F894FFCFE2
:00000001FF
