S00E000054696D6572732E73726563A2
S11300000C942A000C943C000C943C000C943C008E
S11300100C943C000C943C000C943C000C943C006C
S11300200C943C000C943C000C943C000C946A002E
S11300300C943C000C943C000C943C000C943C004C
S11300400C943C000C943C000C943C000C943C003C
S11300500C943C0011241FBECFE5D8E0DEBFCDBF19
S113006020E0A0E6B0E001C01D92A136B207E1F79E
S11300700E943E000C94CB000C94000060E080E0F1
S11300800E947B0061E080E00E947B008FB7806863
S11300908FBF89B7816089BF83B78F7B83BF83B7E5
S11300A0877F83BF83B7846083BF83B78D7F83BF1C
S11300B083B7816083BF92E021E08BB389278BBB38
S11300C0809160008F31CCF38BB382278BBB10926D
S11300D06000F3CF1F920F920FB60F9211248F93EB
S11300E0809160008F5F809360008F910F900FBEAE
S11300F00F901F9018958130C1F028F0823039F1AB
S11301008330B9F108952AB381E090E0AC0102C0D4
S1130110440F551F6A95E2F7BA01822F842B8ABBDC
S11301208BB3609568236BBB089527B381E090E09F
S1130130AC0102C0440F551F6A95E2F7BA01822F41
S1130140842B87BB88B36095682368BB089524B368
S113015081E090E0AC0102C0440F551F6A95E2F7BC
S1130160BA01822F842B84BB85B36095682365BB59
S1130170089521B381E090E0AC0102C0440F551F03
S11301806A95E2F7BA01822F842B81BB82B3609512
S10D0190682362BB0895F894FFCFC2
S9030000FC
