S0120000496E7465727570745F312E7372656327
S11300000C942A000C9450000C9434000C9434008A
S11300100C9434000C9434000C9434000C9434008C
S11300200C9434000C9434000C9434000C9434007C
S11300300C9434000C9434000C9434000C9434006C
S11300400C9434000C9434000C9434000C9434005C
S11300500C94340011241FBECFE5D4E0DEBFCDBF25
S11300600E9436000C945F000C9400008FEF8ABB52
S113007011BA1BBA82BB85B7826085BF8BB7806417
S11300808BBF789491E08BB389278BBB2FE936E83B
S113009081E0215030408040E1F700C00000F3CF00
S11300A01F920F920FB60F921124829903C0D89811
S11300B0D99AF8940F900FBE0F901F901895F8944A
S10500C0FFCF6C
S9030000FC
