:100000000C942A000C9434000C9434000C943400AA
:100010000C9434000C9434000C9434000C94340090
:100020000C9434000C9434000C9434000C94340080
:100030000C9434000C9434000C9434000C94340070
:100040000C9434000C9434000C9434000C94340060
:100050000C94340011241FBECFE5D8E0DEBFCDBF25
:100060000E9436000C946E000C9400008FEF8ABB47
:1000700017BA1BBA88BB81E021E090E0B19906C0B5
:10008000B09904C0D898D998892FF8CF8823F1F077
:10009000B0990DC0D998D89A3FE34DE083E0315034
:1000A00040408040E1F700C00000892FE7CFB199C0
:1000B0000DC0D898D99A3FE34DE083E031504040DD
:1000C0008040E1F700C00000892FD8CFB19BD6CF88
:1000D000B09BD4CFD898D998822FD0CFF894FFCFA7
:00000001FF
