:100000000C942A000C9434000C9434000C943400AA
:100010000C9434000C9434000C9434000C94340090
:100020000C9434000C9434000C9434000C94340080
:100030000C9434000C9434000C9434000C94340070
:100040000C9434000C9434000C9434000C94340060
:100050000C94340011241FBECFE5D8E0DEBFCDBF25
:100060000E9436000C94A7000C9400008FE08ABB1D
:1000700080EF8BBBCF9967C0D89A2FE986E891E0D3
:10008000215080409040E1F700C00000D99A2FE94C
:1000900086E891E0215080409040E1F700C00000E8
:1000A000DA9A2FE986E891E0215080409040E1F70C
:1000B00000C00000DB9A2FE986E891E021508040E3
:1000C0009040E1F700C000008BB3807F8BBBD89AD3
:1000D000D99A2FE986E891E0215080409040E1F7DD
:1000E00000C00000DA9A2FE986E891E021508040B4
:1000F0009040E1F700C00000DB9A2FE986E891E02C
:10010000215080409040E1F700C000008BB3807F19
:100110008BBBD89AD99ADA9A2FE986E891E02150D8
:1001200080409040E1F700C00000DB9A2FE986E8AC
:1001300091E0215080409040E1F700C000008BB377
:10014000807F8BBB97CF8BB3807F8BBB93CFF89493
:02015000FFCFDF
:00000001FF
