S00E00004B65794261642E73726563E6
S11300000C942A000C9434000C9434000C943400A6
S11300100C9434000C9434000C9434000C9434008C
S11300200C9434000C9434000C9434000C9434007C
S11300300C9434000C9434000C9434000C9434006C
S11300400C9434000C9434000C9434000C9434005C
S11300500C94340011241FBECFE5D8E0DEBFCDBF21
S11300600E94C0000C94CC000C94000080EF8ABB6A
S11300708FEF8BBB089584E090E060E041E050E0B6
S11300807BB39A01082E02C0220F331F0A94E2F7B1
S1130090E22FE0957E237BBBE9EFF0E03197F1F7A7
S11300A000C0000079B37F707F3029F089B38F706E
S11300B08F30E1F708C03BB3232B2BBB6F5F019656
S11300C06430F1F657C0643009F457C06130C1F0B0
S11300D028F0623039F16330B9F141C07B3061F00E
S11300E018F4773059F004C07D3021F07E30C9F126
S11300F084E63EC084E03CC081E03AC080E038C081
S11301007B3061F018F4773059F004C07D3021F071
S11301107E3049F184E62CC085E02AC082E028C004
S113012080E026C07B3061F018F4773059F004C0C9
S11301307D3021F07E30C9F084E61AC086E018C014
S113014083E016C080E014C07B3089F018F4773067
S113015071F003C07D50723050F084E609C084E62B
S113016007C087E005C088E003C089E001C080E0E3
S113017090E0089584E690E0089584E690E0089580
S11301808FEF84BB1BBA0E9436000E943B0084366A
S10F01909105D9F385BBF9CFF894FFCF9B
S9030000FC
