:100000000C942A000C943C000C943C000C943C0092
:100010000C943C000C943C000C943C000C943C0070
:100020000C943C000C943C000C943C000C943C0060
:100030000C943C000C943C000C94BB000C943C00D1
:100040000C943C000C943C000C943C000C943C0040
:100050000C943C0011241FBECFE5D8E0DEBFCDBF1D
:1000600020E0A0E6B0E001C01D92A136B207E1F7A2
:100070000E943E000C94CA000C940000789460E04A
:1000800080E00E945C000E94AC0080E00E94B8000A
:10009000C1E0D0E001C0CD2F2FE58AEE90E02150E5
:1000A00080409040E1F700C000008C2F0E94B80013
:1000B000CF5FCA3080F7F0CF8130C1F028F08230B6
:1000C00039F18330B9F108952AB381E090E0AC01B1
:1000D00002C0440F551F6A95E2F7BA01842F80953C
:1000E00082238ABB8BB3682B6BBB089527B381E057
:1000F00090E0AC0102C0440F551F6A95E2F7BA01C7
:10010000842F8095822387BB88B3682B68BB0895B2
:1001100024B381E090E0AC0102C0440F551F6A9502
:10012000E2F7BA01842F8095822384BB85B3682BC4
:1001300065BB089521B381E090E0AC0102C0440F9B
:10014000551F6A95E2F7BA01842F8095822381BBFF
:1001500082B3682B62BB089583E389B910BC8BB16D
:100160008BB98AB1886F8AB980B5866880BD0895D9
:100170008093600008951F920F920FB60F92112482
:100180008F93809160008CB98F910F900FBE0F906C
:080190001F901895F894FFCFB1
:00000001FF
