S01900004144435F706F74656E74696F6D657465722E7372656355
S11300000C942A000C9447000C9447000C9447006D
S11300100C9447000C9447000C9447000C94470040
S11300200C9447000C9447000C9447000C94470030
S11300300C9447000C9447000C9447000C94470020
S11300400C9447000C9447000C9447000C94470010
S11300500C94470011241FBECFE5D8E0DEBFCDBF0E
S113006010E0A0E6B0E0E8E8F2E002C005900D92EE
S1130070A036B107D9F720E0A0E6B0E001C01D9298
S1130080A136B207E1F70E94F8000C9442010C94E7
S11300900000379A329A319A309A339A8FB780682F
S11300A08FBF089597B18770907F982B97B9369A30
S11300B0349BFECF349A84B195B10895AA98A99837
S11300C0E9EFF0E03197F1F700C00000A89AE9EFFA
S11300D0F0E03197F1F700C0000082BB89EF90E0B7
S11300E00197F1F700C00000A898E9EFF0E031971C
S11300F0F1F700C00000089581B38FEF81BB84B392
S1130100876084BB88E30E945E0081E00E945E00F9
S11301108CE00E945E000895CF93C82F90916000F8
S11301209F5F90936000913119F480EC0E945E000F
S113013080916000813229F41092600080E80E946E
S11301405E00AA9AA99889EF90E00197F1F700C0A0
S11301500000A89A89EF90E00197F1F700C0000031
S1130160C2BB89EF90E00197F1F700C00000A898A6
S113017089EF90E00197F1F700C00000CF91089556
S11301801F93CF93DF93EC018881882351F010E013
S11301900E948C001F5FFE01E10FF11D808181111F
S11301A0F7CFDF91CF911F910895CF93DF93CDB710
S11301B0DEB727970FB6F894DEBF0FBECDBF4AE077
S11301C0BE016F5F7F4F0E940D01CE0101960E9418
S11301D0C00027960FB6F894DEBF0FBECDBFDF91E7
S11301E0CF91089581E00E945E001092600008950E
S11301F00E9449000E947C0080E00E9452000E94FC
S1130200D5002FE58AEE90E0215080409040E1F740
S113021000C000000E94F200EFCFBB274A3031F447
S1130220992322F4BDE2909581959F4F0C94190176
S1130230BB27FB015527AA27880F991FAA1FA417BC
S113024010F0A41B83955051B9F7A05DAA3308F0B0
S1130250A95DA193009779F7B111B1931192CB01E4
S11302600C943201DC01FC01672F71917723E1F7D3
S1130270329704C07C916D9370836291AE17BF076F
S10B0280C8F30895F894FFCFC0
S9030000FC
